{
  "transactions": [
    {
      "hash": "0xbbc94e7dee0ebea571f30112938726f7475d8d7f8d8fdc9652b069a56330e052",
      "transactionType": "CREATE",
      "contractName": "PopulationGrowth",
      "contractAddress": "0xbccfb3932f841af09b0c7d584c34ce1c9893b2e4",
      "function": null,
      "arguments": null,
      "transaction": {
        "from": "0xd84870b22b8250520ddb5fda4a928c6611e3aa40",
        "gas": "0x2d729",
        "value": "0x0",
        "input": "0x6080604052348015600e575f5ffd5b506101a08061001c5f395ff3fe608060405234801561000f575f5ffd5b5060043610610029575f3560e01c8063abdead661461002d575b5f5ffd5b61004061003b3660046100c6565b610042565b005b8260015b8281116100bf575f606461005a8685610103565b6100649190610120565b9050610070818461013f565b60408051848152602081018390529194507f2d147fa40ccd83a0aaf41448b5670bd2d035ff836bff542c6aa83af0113e04c2910160405180910390a150806100b781610152565b915050610046565b5050505050565b5f5f5f606084860312156100d8575f5ffd5b505081359360208301359350604090920135919050565b634e487b7160e01b5f52601160045260245ffd5b808202811582820484141761011a5761011a6100ef565b92915050565b5f8261013a57634e487b7160e01b5f52601260045260245ffd5b500490565b8082018082111561011a5761011a6100ef565b5f60018201610163576101636100ef565b506001019056fea26469706673582212202fdd38ba1894450fb721b38b4c41a27370f4c40027625709140e3c8b72608c8f64736f6c634300081c0033",
        "nonce": "0x5",
        "chainId": "0xaa36a7"
      },
      "additionalContracts": [],
      "isFixedGasLimit": false
    },
    {
      "hash": "0x03209a940e38e07712fde1787f4120c49335376827f19650c5cb021f381290cd",
      "transactionType": "CALL",
      "contractName": "PopulationGrowth",
      "contractAddress": "0xbccfb3932f841af09b0c7d584c34ce1c9893b2e4",
      "function": "simulateGrowth(uint256,uint256,uint256)",
      "arguments": [
        "1000",
        "5",
        "10"
      ],
      "transaction": {
        "from": "0xd84870b22b8250520ddb5fda4a928c6611e3aa40",
        "to": "0xbccfb3932f841af09b0c7d584c34ce1c9893b2e4",
        "gas": "0xd006",
        "value": "0x0",
        "input": "0xabdead6600000000000000000000000000000000000000000000000000000000000003e80000000000000000000000000000000000000000000000000000000000000005000000000000000000000000000000000000000000000000000000000000000a",
        "nonce": "0x6",
        "chainId": "0xaa36a7"
      },
      "additionalContracts": [],
      "isFixedGasLimit": false
    }
  ],
  "receipts": [
    {
      "status": "0x1",
      "cumulativeGasUsed": "0x1652bbb",
      "logs": [],
      "logsBloom": "0x00000000000000000000000000000000000000000000000000000000000000000000000000000000000000000000000000000000000000000000000000000000000000000000000000000000000000000000000000000000000000000000000000000000000000000000000000000000000000000000000000000000000000000000000000000000000000000000000000000000000000000000000000000000000000000000000000000000000000000000000000000000000000000000000000000000000000000000000000000000000000000000000000000000000000000000000000000000000000000000000000000000000000000000000000000000",
      "type": "0x2",
      "transactionHash": "0xbbc94e7dee0ebea571f30112938726f7475d8d7f8d8fdc9652b069a56330e052",
      "transactionIndex": "0xb2",
      "blockHash": "0xe0a78eeb765e93044308014b98d1bf6d6a286dac84f59e1e704cae983660d126",
      "blockNumber": "0x763c3d",
      "gasUsed": "0x22f5b",
      "effectiveGasPrice": "0x7bd023e20",
      "from": "0xd84870b22b8250520ddb5fda4a928c6611e3aa40",
      "to": null,
      "contractAddress": "0xbccfb3932f841af09b0c7d584c34ce1c9893b2e4"
    },
    {
      "status": "0x1",
      "cumulativeGasUsed": "0xc606fe",
      "logs": [
        {
          "address": "0xbccfb3932f841af09b0c7d584c34ce1c9893b2e4",
          "topics": [
            "0x2d147fa40ccd83a0aaf41448b5670bd2d035ff836bff542c6aa83af0113e04c2"
          ],
          "data": "0x0000000000000000000000000000000000000000000000000000000000000001000000000000000000000000000000000000000000000000000000000000041a",
          "blockHash": "0xe24e8ef658d84db50798e51dbe2b9f487fa51927eb14153d6bf913b0136bf377",
          "blockNumber": "0x763c3e",
          "transactionHash": "0x03209a940e38e07712fde1787f4120c49335376827f19650c5cb021f381290cd",
          "transactionIndex": "0xa2",
          "logIndex": "0xba",
          "removed": false
        },
        {
          "address": "0xbccfb3932f841af09b0c7d584c34ce1c9893b2e4",
          "topics": [
            "0x2d147fa40ccd83a0aaf41448b5670bd2d035ff836bff542c6aa83af0113e04c2"
          ],
          "data": "0x0000000000000000000000000000000000000000000000000000000000000002000000000000000000000000000000000000000000000000000000000000044e",
          "blockHash": "0xe24e8ef658d84db50798e51dbe2b9f487fa51927eb14153d6bf913b0136bf377",
          "blockNumber": "0x763c3e",
          "transactionHash": "0x03209a940e38e07712fde1787f4120c49335376827f19650c5cb021f381290cd",
          "transactionIndex": "0xa2",
          "logIndex": "0xbb",
          "removed": false
        },
        {
          "address": "0xbccfb3932f841af09b0c7d584c34ce1c9893b2e4",
          "topics": [
            "0x2d147fa40ccd83a0aaf41448b5670bd2d035ff836bff542c6aa83af0113e04c2"
          ],
          "data": "0x00000000000000000000000000000000000000000000000000000000000000030000000000000000000000000000000000000000000000000000000000000485",
          "blockHash": "0xe24e8ef658d84db50798e51dbe2b9f487fa51927eb14153d6bf913b0136bf377",
          "blockNumber": "0x763c3e",
          "transactionHash": "0x03209a940e38e07712fde1787f4120c49335376827f19650c5cb021f381290cd",
          "transactionIndex": "0xa2",
          "logIndex": "0xbc",
          "removed": false
        },
        {
          "address": "0xbccfb3932f841af09b0c7d584c34ce1c9893b2e4",
          "topics": [
            "0x2d147fa40ccd83a0aaf41448b5670bd2d035ff836bff542c6aa83af0113e04c2"
          ],
          "data": "0x000000000000000000000000000000000000000000000000000000000000000400000000000000000000000000000000000000000000000000000000000004be",
          "blockHash": "0xe24e8ef658d84db50798e51dbe2b9f487fa51927eb14153d6bf913b0136bf377",
          "blockNumber": "0x763c3e",
          "transactionHash": "0x03209a940e38e07712fde1787f4120c49335376827f19650c5cb021f381290cd",
          "transactionIndex": "0xa2",
          "logIndex": "0xbd",
          "removed": false
        },
        {
          "address": "0xbccfb3932f841af09b0c7d584c34ce1c9893b2e4",
          "topics": [
            "0x2d147fa40ccd83a0aaf41448b5670bd2d035ff836bff542c6aa83af0113e04c2"
          ],
          "data": "0x000000000000000000000000000000000000000000000000000000000000000500000000000000000000000000000000000000000000000000000000000004fa",
          "blockHash": "0xe24e8ef658d84db50798e51dbe2b9f487fa51927eb14153d6bf913b0136bf377",
          "blockNumber": "0x763c3e",
          "transactionHash": "0x03209a940e38e07712fde1787f4120c49335376827f19650c5cb021f381290cd",
          "transactionIndex": "0xa2",
          "logIndex": "0xbe",
          "removed": false
        },
        {
          "address": "0xbccfb3932f841af09b0c7d584c34ce1c9893b2e4",
          "topics": [
            "0x2d147fa40ccd83a0aaf41448b5670bd2d035ff836bff542c6aa83af0113e04c2"
          ],
          "data": "0x00000000000000000000000000000000000000000000000000000000000000060000000000000000000000000000000000000000000000000000000000000539",
          "blockHash": "0xe24e8ef658d84db50798e51dbe2b9f487fa51927eb14153d6bf913b0136bf377",
          "blockNumber": "0x763c3e",
          "transactionHash": "0x03209a940e38e07712fde1787f4120c49335376827f19650c5cb021f381290cd",
          "transactionIndex": "0xa2",
          "logIndex": "0xbf",
          "removed": false
        },
        {
          "address": "0xbccfb3932f841af09b0c7d584c34ce1c9893b2e4",
          "topics": [
            "0x2d147fa40ccd83a0aaf41448b5670bd2d035ff836bff542c6aa83af0113e04c2"
          ],
          "data": "0x0000000000000000000000000000000000000000000000000000000000000007000000000000000000000000000000000000000000000000000000000000057b",
          "blockHash": "0xe24e8ef658d84db50798e51dbe2b9f487fa51927eb14153d6bf913b0136bf377",
          "blockNumber": "0x763c3e",
          "transactionHash": "0x03209a940e38e07712fde1787f4120c49335376827f19650c5cb021f381290cd",
          "transactionIndex": "0xa2",
          "logIndex": "0xc0",
          "removed": false
        },
        {
          "address": "0xbccfb3932f841af09b0c7d584c34ce1c9893b2e4",
          "topics": [
            "0x2d147fa40ccd83a0aaf41448b5670bd2d035ff836bff542c6aa83af0113e04c2"
          ],
          "data": "0x000000000000000000000000000000000000000000000000000000000000000800000000000000000000000000000000000000000000000000000000000005c1",
          "blockHash": "0xe24e8ef658d84db50798e51dbe2b9f487fa51927eb14153d6bf913b0136bf377",
          "blockNumber": "0x763c3e",
          "transactionHash": "0x03209a940e38e07712fde1787f4120c49335376827f19650c5cb021f381290cd",
          "transactionIndex": "0xa2",
          "logIndex": "0xc1",
          "removed": false
        },
        {
          "address": "0xbccfb3932f841af09b0c7d584c34ce1c9893b2e4",
          "topics": [
            "0x2d147fa40ccd83a0aaf41448b5670bd2d035ff836bff542c6aa83af0113e04c2"
          ],
          "data": "0x0000000000000000000000000000000000000000000000000000000000000009000000000000000000000000000000000000000000000000000000000000060a",
          "blockHash": "0xe24e8ef658d84db50798e51dbe2b9f487fa51927eb14153d6bf913b0136bf377",
          "blockNumber": "0x763c3e",
          "transactionHash": "0x03209a940e38e07712fde1787f4120c49335376827f19650c5cb021f381290cd",
          "transactionIndex": "0xa2",
          "logIndex": "0xc2",
          "removed": false
        },
        {
          "address": "0xbccfb3932f841af09b0c7d584c34ce1c9893b2e4",
          "topics": [
            "0x2d147fa40ccd83a0aaf41448b5670bd2d035ff836bff542c6aa83af0113e04c2"
          ],
          "data": "0x000000000000000000000000000000000000000000000000000000000000000a0000000000000000000000000000000000000000000000000000000000000657",
          "blockHash": "0xe24e8ef658d84db50798e51dbe2b9f487fa51927eb14153d6bf913b0136bf377",
          "blockNumber": "0x763c3e",
          "transactionHash": "0x03209a940e38e07712fde1787f4120c49335376827f19650c5cb021f381290cd",
          "transactionIndex": "0xa2",
          "logIndex": "0xc3",
          "removed": false
        }
      ],
      "logsBloom": "0x00000000000000000000000000000000000000000000000000000002000000000000000000020000000000000000000000000000000000000000000000000000000000000000000000000000000000000000000000000000000000000000000000000002000000000000000000000000000000000000000000000000000000000000000000000100000000000000000000000000000000040000000000000000000000000000000000010000000000000000000000000000000000000000000000000000000000000000000000000000000000000000000000000000000000000000000000000000000000000000000000000000000000000000000000000000",
      "type": "0x2",
      "transactionHash": "0x03209a940e38e07712fde1787f4120c49335376827f19650c5cb021f381290cd",
      "transactionIndex": "0xa2",
      "blockHash": "0xe24e8ef658d84db50798e51dbe2b9f487fa51927eb14153d6bf913b0136bf377",
      "blockNumber": "0x763c3e",
      "gasUsed": "0x969c",
      "effectiveGasPrice": "0x815961a3d",
      "from": "0xd84870b22b8250520ddb5fda4a928c6611e3aa40",
      "to": "0xbccfb3932f841af09b0c7d584c34ce1c9893b2e4",
      "contractAddress": null
    }
  ],
  "libraries": [],
  "pending": [],
  "returns": {},
  "timestamp": 1740065929,
  "chain": 11155111,
  "commit": "410f8fe"
}