{
  "transactions": [
    {
      "hash": "0x73c3515b6bf0e01575b60d15305e19bb45d8584dd23100cbe3adbd35fe12b8a3",
      "transactionType": "CREATE",
      "contractName": "PopulationGrowth",
      "contractAddress": "0xc0c3f7d5e5cbfbe5484bb7d6fa5740390059d8cc",
      "function": null,
      "arguments": null,
      "transaction": {
        "from": "0xd84870b22b8250520ddb5fda4a928c6611e3aa40",
        "gas": "0x2d739",
        "value": "0x0",
        "input": "0x6080604052348015600e575f5ffd5b506101a08061001c5f395ff3fe608060405234801561000f575f5ffd5b5060043610610029575f3560e01c8063abdead661461002d575b5f5ffd5b61004061003b3660046100c6565b610042565b005b8260015b8281116100bf575f606461005a8685610103565b6100649190610120565b9050610070818461013f565b60408051848152602081018390529194507f2d147fa40ccd83a0aaf41448b5670bd2d035ff836bff542c6aa83af0113e04c2910160405180910390a150806100b781610152565b915050610046565b5050505050565b5f5f5f606084860312156100d8575f5ffd5b505081359360208301359350604090920135919050565b634e487b7160e01b5f52601160045260245ffd5b808202811582820484141761011a5761011a6100ef565b92915050565b5f8261013a57634e487b7160e01b5f52601260045260245ffd5b500490565b8082018082111561011a5761011a6100ef565b5f60018201610163576101636100ef565b506001019056fea2646970667358221220559ee967ace32a5dc8bf563fa73671b43b291098d24b6cdc905add8bdf22dbb064736f6c634300081c0033",
        "nonce": "0x1",
        "chainId": "0xaa36a7"
      },
      "additionalContracts": [],
      "isFixedGasLimit": false
    },
    {
      "hash": "0x23c38ce613260b145ad53d7a6f43d96a22db7c7c23247249b071988074679768",
      "transactionType": "CALL",
      "contractName": "PopulationGrowth",
      "contractAddress": "0xc0c3f7d5e5cbfbe5484bb7d6fa5740390059d8cc",
      "function": "simulateGrowth(uint256,uint256,uint256)",
      "arguments": [
        "1000",
        "5",
        "10"
      ],
      "transaction": {
        "from": "0xd84870b22b8250520ddb5fda4a928c6611e3aa40",
        "to": "0xc0c3f7d5e5cbfbe5484bb7d6fa5740390059d8cc",
        "gas": "0xd006",
        "value": "0x0",
        "input": "0xabdead6600000000000000000000000000000000000000000000000000000000000003e80000000000000000000000000000000000000000000000000000000000000005000000000000000000000000000000000000000000000000000000000000000a",
        "nonce": "0x2",
        "chainId": "0xaa36a7"
      },
      "additionalContracts": [],
      "isFixedGasLimit": false
    }
  ],
  "receipts": [
    {
      "status": "0x1",
      "cumulativeGasUsed": "0xc2f559",
      "logs": [],
      "logsBloom": "0x00000000000000000000000000000000000000000000000000000000000000000000000000000000000000000000000000000000000000000000000000000000000000000000000000000000000000000000000000000000000000000000000000000000000000000000000000000000000000000000000000000000000000000000000000000000000000000000000000000000000000000000000000000000000000000000000000000000000000000000000000000000000000000000000000000000000000000000000000000000000000000000000000000000000000000000000000000000000000000000000000000000000000000000000000000000",
      "type": "0x2",
      "transactionHash": "0x73c3515b6bf0e01575b60d15305e19bb45d8584dd23100cbe3adbd35fe12b8a3",
      "transactionIndex": "0x95",
      "blockHash": "0xf49618507781db6c3cd76e6558822ba8058f5d7a4455c5c19c5aded1fae915b7",
      "blockNumber": "0x757d81",
      "gasUsed": "0x22f67",
      "effectiveGasPrice": "0x5757b588",
      "from": "0xd84870b22b8250520ddb5fda4a928c6611e3aa40",
      "to": null,
      "contractAddress": "0xc0c3f7d5e5cbfbe5484bb7d6fa5740390059d8cc"
    },
    {
      "status": "0x1",
      "cumulativeGasUsed": "0xc38bf5",
      "logs": [
        {
          "address": "0xc0c3f7d5e5cbfbe5484bb7d6fa5740390059d8cc",
          "topics": [
            "0x2d147fa40ccd83a0aaf41448b5670bd2d035ff836bff542c6aa83af0113e04c2"
          ],
          "data": "0x0000000000000000000000000000000000000000000000000000000000000001000000000000000000000000000000000000000000000000000000000000041a",
          "blockHash": "0xf49618507781db6c3cd76e6558822ba8058f5d7a4455c5c19c5aded1fae915b7",
          "blockNumber": "0x757d81",
          "transactionHash": "0x23c38ce613260b145ad53d7a6f43d96a22db7c7c23247249b071988074679768",
          "transactionIndex": "0x96",
          "logIndex": "0xe8",
          "removed": false
        },
        {
          "address": "0xc0c3f7d5e5cbfbe5484bb7d6fa5740390059d8cc",
          "topics": [
            "0x2d147fa40ccd83a0aaf41448b5670bd2d035ff836bff542c6aa83af0113e04c2"
          ],
          "data": "0x0000000000000000000000000000000000000000000000000000000000000002000000000000000000000000000000000000000000000000000000000000044e",
          "blockHash": "0xf49618507781db6c3cd76e6558822ba8058f5d7a4455c5c19c5aded1fae915b7",
          "blockNumber": "0x757d81",
          "transactionHash": "0x23c38ce613260b145ad53d7a6f43d96a22db7c7c23247249b071988074679768",
          "transactionIndex": "0x96",
          "logIndex": "0xe9",
          "removed": false
        },
        {
          "address": "0xc0c3f7d5e5cbfbe5484bb7d6fa5740390059d8cc",
          "topics": [
            "0x2d147fa40ccd83a0aaf41448b5670bd2d035ff836bff542c6aa83af0113e04c2"
          ],
          "data": "0x00000000000000000000000000000000000000000000000000000000000000030000000000000000000000000000000000000000000000000000000000000485",
          "blockHash": "0xf49618507781db6c3cd76e6558822ba8058f5d7a4455c5c19c5aded1fae915b7",
          "blockNumber": "0x757d81",
          "transactionHash": "0x23c38ce613260b145ad53d7a6f43d96a22db7c7c23247249b071988074679768",
          "transactionIndex": "0x96",
          "logIndex": "0xea",
          "removed": false
        },
        {
          "address": "0xc0c3f7d5e5cbfbe5484bb7d6fa5740390059d8cc",
          "topics": [
            "0x2d147fa40ccd83a0aaf41448b5670bd2d035ff836bff542c6aa83af0113e04c2"
          ],
          "data": "0x000000000000000000000000000000000000000000000000000000000000000400000000000000000000000000000000000000000000000000000000000004be",
          "blockHash": "0xf49618507781db6c3cd76e6558822ba8058f5d7a4455c5c19c5aded1fae915b7",
          "blockNumber": "0x757d81",
          "transactionHash": "0x23c38ce613260b145ad53d7a6f43d96a22db7c7c23247249b071988074679768",
          "transactionIndex": "0x96",
          "logIndex": "0xeb",
          "removed": false
        },
        {
          "address": "0xc0c3f7d5e5cbfbe5484bb7d6fa5740390059d8cc",
          "topics": [
            "0x2d147fa40ccd83a0aaf41448b5670bd2d035ff836bff542c6aa83af0113e04c2"
          ],
          "data": "0x000000000000000000000000000000000000000000000000000000000000000500000000000000000000000000000000000000000000000000000000000004fa",
          "blockHash": "0xf49618507781db6c3cd76e6558822ba8058f5d7a4455c5c19c5aded1fae915b7",
          "blockNumber": "0x757d81",
          "transactionHash": "0x23c38ce613260b145ad53d7a6f43d96a22db7c7c23247249b071988074679768",
          "transactionIndex": "0x96",
          "logIndex": "0xec",
          "removed": false
        },
        {
          "address": "0xc0c3f7d5e5cbfbe5484bb7d6fa5740390059d8cc",
          "topics": [
            "0x2d147fa40ccd83a0aaf41448b5670bd2d035ff836bff542c6aa83af0113e04c2"
          ],
          "data": "0x00000000000000000000000000000000000000000000000000000000000000060000000000000000000000000000000000000000000000000000000000000539",
          "blockHash": "0xf49618507781db6c3cd76e6558822ba8058f5d7a4455c5c19c5aded1fae915b7",
          "blockNumber": "0x757d81",
          "transactionHash": "0x23c38ce613260b145ad53d7a6f43d96a22db7c7c23247249b071988074679768",
          "transactionIndex": "0x96",
          "logIndex": "0xed",
          "removed": false
        },
        {
          "address": "0xc0c3f7d5e5cbfbe5484bb7d6fa5740390059d8cc",
          "topics": [
            "0x2d147fa40ccd83a0aaf41448b5670bd2d035ff836bff542c6aa83af0113e04c2"
          ],
          "data": "0x0000000000000000000000000000000000000000000000000000000000000007000000000000000000000000000000000000000000000000000000000000057b",
          "blockHash": "0xf49618507781db6c3cd76e6558822ba8058f5d7a4455c5c19c5aded1fae915b7",
          "blockNumber": "0x757d81",
          "transactionHash": "0x23c38ce613260b145ad53d7a6f43d96a22db7c7c23247249b071988074679768",
          "transactionIndex": "0x96",
          "logIndex": "0xee",
          "removed": false
        },
        {
          "address": "0xc0c3f7d5e5cbfbe5484bb7d6fa5740390059d8cc",
          "topics": [
            "0x2d147fa40ccd83a0aaf41448b5670bd2d035ff836bff542c6aa83af0113e04c2"
          ],
          "data": "0x000000000000000000000000000000000000000000000000000000000000000800000000000000000000000000000000000000000000000000000000000005c1",
          "blockHash": "0xf49618507781db6c3cd76e6558822ba8058f5d7a4455c5c19c5aded1fae915b7",
          "blockNumber": "0x757d81",
          "transactionHash": "0x23c38ce613260b145ad53d7a6f43d96a22db7c7c23247249b071988074679768",
          "transactionIndex": "0x96",
          "logIndex": "0xef",
          "removed": false
        },
        {
          "address": "0xc0c3f7d5e5cbfbe5484bb7d6fa5740390059d8cc",
          "topics": [
            "0x2d147fa40ccd83a0aaf41448b5670bd2d035ff836bff542c6aa83af0113e04c2"
          ],
          "data": "0x0000000000000000000000000000000000000000000000000000000000000009000000000000000000000000000000000000000000000000000000000000060a",
          "blockHash": "0xf49618507781db6c3cd76e6558822ba8058f5d7a4455c5c19c5aded1fae915b7",
          "blockNumber": "0x757d81",
          "transactionHash": "0x23c38ce613260b145ad53d7a6f43d96a22db7c7c23247249b071988074679768",
          "transactionIndex": "0x96",
          "logIndex": "0xf0",
          "removed": false
        },
        {
          "address": "0xc0c3f7d5e5cbfbe5484bb7d6fa5740390059d8cc",
          "topics": [
            "0x2d147fa40ccd83a0aaf41448b5670bd2d035ff836bff542c6aa83af0113e04c2"
          ],
          "data": "0x000000000000000000000000000000000000000000000000000000000000000a0000000000000000000000000000000000000000000000000000000000000657",
          "blockHash": "0xf49618507781db6c3cd76e6558822ba8058f5d7a4455c5c19c5aded1fae915b7",
          "blockNumber": "0x757d81",
          "transactionHash": "0x23c38ce613260b145ad53d7a6f43d96a22db7c7c23247249b071988074679768",
          "transactionIndex": "0x96",
          "logIndex": "0xf1",
          "removed": false
        }
      ],
      "logsBloom": "0x00000000000000000000000000000000000000000080000000000002000000000000000000000000000000000000000000000000000000000000000000000000000000000000000000000000000000000000000000000000000000000000000000000000000000000000000000000000000000000000000000000000000000000000000000000100000000000000000000000000000000040000000000000000000400000000000000000000000000000000000000000000000000000000000000000000000000000000000000000000002000000000000000000000000000000000000000000000000000000000000000000000000000000000000000000000",
      "type": "0x2",
      "transactionHash": "0x23c38ce613260b145ad53d7a6f43d96a22db7c7c23247249b071988074679768",
      "transactionIndex": "0x96",
      "blockHash": "0xf49618507781db6c3cd76e6558822ba8058f5d7a4455c5c19c5aded1fae915b7",
      "blockNumber": "0x757d81",
      "gasUsed": "0x969c",
      "effectiveGasPrice": "0x5757b588",
      "from": "0xd84870b22b8250520ddb5fda4a928c6611e3aa40",
      "to": "0xc0c3f7d5e5cbfbe5484bb7d6fa5740390059d8cc",
      "contractAddress": null
    }
  ],
  "libraries": [],
  "pending": [],
  "returns": {},
  "timestamp": 1739460290,
  "chain": 11155111,
  "commit": "80a9471"
}